:020000040800F2
:100000000090002085580008D9520008DB520008F3
:1000100000000000000000000000000000000000E0
:10002000000000000000000000000000DD52000899
:100030000000000000000000DF520008E15200084C
:10004000D5580008D5580008D5580008D5580008DC
:10005000D5580008E9520008D5580008D5580008BE
:10006000D5580008F3520008FB5200080553000859
:10007000D5580008D5580008D5580008D5580008AC
:10008000D55800082953000839530008D5580008EE
:10009000D5580008D5580008D5580008D55800088C
:1000A000D55800084953000859530008D55800088E
:0C00B000D5580008D5580008D5580008A5
:1000BC0010B5064C2378002B07D1054B002B02D032
:1000CC00044800E000BF0123237010BDB0000020E5
:1000DC00000000008CBB0108044B10B5002B03D0B2
:1000EC000349044800E000BF10BDC04600000000FA
:1000FC00B40000208CBB010802780B78002A03D0D6
:10010C00013001319A42F7D0D01A704702B47146CF
:10011C0049084900095649008E4402BC7047C04644
:10012C0002B4714649084900095C49008E4402BC7E
:10013C007047C04603B47146490840004900095E47
:10014C0049008E4403BC704703B471464908400013
:10015C004900095A49008E4403BC704700224308E9
:10016C008B4274D303098B425FD3030A8B4244D373
:10017C00030B8B4228D3030C8B420DD3FF220902B5
:10018C0012BA030C8B4202D31212090265D0030B74
:10019C008B4219D300E0090AC30B8B4201D3CB036A
:1001AC00C01A5241830B8B4201D38B03C01A5241AC
:1001BC00430B8B4201D34B03C01A5241030B8B42AE
:1001CC0001D30B03C01A5241C30A8B4201D3CB0299
:1001DC00C01A5241830A8B4201D38B02C01A52417E
:1001EC00430A8B4201D34B02C01A5241030A8B4281
:1001FC0001D30B02C01A5241CDD2C3098B4201D399
:10020C00CB01C01A524183098B4201D38B01C01A16
:10021C00524143098B4201D34B01C01A524103098D
:10022C008B4201D30B01C01A5241C3088B4201D33C
:10023C00CB00C01A524183088B4201D38B00C01AE9
:10024C00524143088B4201D34B00C01A5241411A10
:10025C0000D20146524110467047FFE701B500201D
:10026C0000F0F0F802BDC0460029F7D076E77047E1
:10027C0003460B437FD4002243088B4274D30309FB
:10028C008B425FD3030A8B4244D3030B8B4228D39C
:10029C00030C8B420DD3FF22090212BA030C8B42C2
:1002AC0002D31212090265D0030B8B4219D300E062
:1002BC00090AC30B8B4201D3CB03C01A5241830BE7
:1002CC008B4201D38B03C01A5241430B8B4201D397
:1002DC004B03C01A5241030B8B4201D30B03C01AC0
:1002EC005241C30A8B4201D3CB02C01A5241830A3A
:1002FC008B4201D38B02C01A5241430A8B4201D369
:10030C004B02C01A5241030A8B4201D30B02C01A92
:10031C005241CDD2C3098B4201D3CB01C01A5241F9
:10032C0083098B4201D38B01C01A524143098B4282
:10033C0001D34B01C01A524103098B4201D30B016B
:10034C00C01A5241C3088B4201D3CB00C01A524190
:10035C0083088B4201D38B00C01A524143088B4255
:10036C0001D34B00C01A5241411A00D201465241EE
:10037C00104670475DE0CA0F00D04942031000D30D
:10038C004042534000229C4603098B422DD3030A62
:10039C008B4212D3FC22890112BA030A8B420CD372
:1003AC00890192118B4208D3890192118B4204D39B
:1003BC0089013AD0921100E08909C3098B4201D31B
:1003CC00CB01C01A524183098B4201D38B01C01A55
:1003DC00524143098B4201D34B01C01A52410309CC
:1003EC008B4201D30B01C01A5241C3088B4201D37B
:1003FC00CB00C01A524183088B4201D38B00C01A28
:10040C005241D9D243088B4201D34B00C01A5241FE
:10041C00411A00D20146634652415B10104601D38B
:10042C004042002B00D54942704763465B1000D315
:10043C00404201B5002000F005F802BD0029F8D0BB
:10044C0016E770477047C0468446100062468C46DB
:10045C001900634600E0C0461FB501F08FFE00286E
:10046C0001D40021C8421FBD10B501F0CFFD4042A0
:10047C00013010BD10B501F081FE002801DB002019
:10048C0010BD012010BDC04610B501F077FE00284C
:10049C0001DD002010BD012010BDC04610B501F0DB
:1004AC00F9FD002801DC002010BD012010BDC04664
:1004BC0010B501F0EFFD002801DA002010BD01207D
:1004CC0010BDC046844608006146FFE71FB500F02A
:1004DC0083FB002801D40021C8421FBD10B500F0D9
:1004EC0003FB4042013010BD10B500F075FB002835
:1004FC0001DB002010BD012010BDC04610B500F07E
:10050C006BFB002801DD002010BD012010BDC04692
:10051C0010B500F011FB002801DC002010BD0120FB
:10052C0010BDC04610B500F007FB002801DA002012
:10053C0010BD012010BDC046F0B5CE469946030C47
:10054C009C46130447461B0C1D000E006146040418
:10055C00240C80B50700100C4B43654341436043AA
:10056C002C0CC01824188C46A34203D980235B02A0
:10057C009846C444494679435643230C2D042D0C0C
:10058C008919634424046019C918C0BCB946B04623
:10059C00F0BDC046F8B5CE46474643025A0A4E0255
:1005AC004500C40F480091462D0E720A000E944669
:1005BC0080B59B09C90FB6092A1A8C4221D0002A92
:1005CC000DDD00282DD1002E00D18DE0511E012A09
:1005DC0000D11DE1FF2A00D1ABE00A0027E0002A80
:1005EC004DD0421B002D00D0CCE0002B00D179E087
:1005FC00541E012A00D128E1FF2A00D197E02200E5
:10060C00C5E0002A00DC96E000284FD0FF2D00D179
:10061C008FE08021C9040E431B2A51DD2A000133CF
:10062C0018E0FF2D00D184E08021C9040E43012184
:10063C001B2A08DC31002020D140821A964032005F
:10064C00501E824111435B1A5A0159D407212A00CA
:10065C00194049D00F211940042900D00433590105
:10066C0042D5501CFE2A3AD09B01C0B25B0AC00591
:10067C001843E4072043C0BCB946B046F8BDFE2081
:10068C0080466F1C38004746074200D08EE0002D94
:10069C0000D0B4E0002B00D1DBE0002E6CD0981B16
:1006AC00450100D4F7E00C00F31A3DE0002E1BD0FE
:1006BC00511E012A00D182E0FF2A3AD00A00ABE792
:1006CC0031002020D140821A96403200501E8241C7
:1006DC000A439B185A01B9D56A1CFE2D75D1FF200F
:1006EC000023C4E70C003300DB08FF2A46D1002BA3
:1006FC00F5D08022D20313435B02FF205B0AB6E7DE
:10070C009F01BF09380002F02BFD05388740854258
:10071C0024DC3B002021421B0132D3408A1A974033
:10072C007A1E974100223B43590793D197E70C005F
:10073C003300DB08DBE7002A14D0421B002D4BD121
:10074C00002BD0D0511E012A00D19EE0FF2AEFD001
:10075C000A001B2A5FDD0200731C7BE7504B2A1A30
:10076C003B40E1E7FE216A1C11423BD1002D5DD1DB
:10077C00002B7FD0002E7FD10022DB085B025B0AAE
:10078C00D0B274E7FF28D2D08024E40423430124A0
:10079C001B2A07DC1C002025D440AA1A93405A1EA1
:1007AC0093411C43331B05000C004DE79F1B7A0142
:1007BC0022D4002FA6D100240020002357E79B1938
:1007CC0001250132590100D440E701213548194077
:1007DC005B0803400B43A7E7FF28A9D08021C9047D
:1007EC000B43B6E7FF2A00D179E79B195B08590741
:1007FC0000D02FE7DB08C1E70C00F71A82E7002BCB
:10080C002CD1002E93D180230024FF20DB032EE774
:10081C0001259B1B18E719002025D140AA1A9340EB
:10082C005A1E93410B4305009B1953E7002B00D133
:10083C007EE7002E00D17CE78022D203914502D3C3
:10084C00944500D23300DB0853E70C00F31A013552
:10085C00FAE6002EAFD00C0033008DE7002E00D14D
:10086C0067E78022D2039145EDD39445EBD20C007F
:10087C003300E8E733007FE79B1900225901B9D513
:10088C00074A1340DB08012278E79B190132013536
:10089C0059019AD4DAE6031E8DD0DB086EE7C04608
:1008AC00FFFFFFFBFFFFFF7DF0B54F464646D646E8
:1008BC004402C0B547000E1C640A3F0EC50F002F42
:1008CC003CD0FF2F42D00023802299469A46E40068
:1008DC00D20414437F3F73025B0A984673001B0ECD
:1008EC00F60F002B1BD0FF2B13D042468021D200D9
:1008FC00C9041143884600207F3B2900FF1A4B4650
:10090C007140C9B20F2B00D9B5E0744A9B00D35883
:10091C009F464346002B3FD1FF3F023303E0434643
:10092C00002B2DD1012329004A467140C9B21A432C
:10093C000E2A38D86A48920082589746002C13D158
:10094C0004239946033B00279A46C4E7002C05D1A3
:10095C0008239946063BFF279A46BCE70C23994689
:10096C00093BFF279A46B6E7200002F0F9FB7627F1
:10097C00431F9C4000237F4299469A463F1AAAE7A0
:10098C00404602F0EDFB4246431F9A4076235B4201
:10099C001B1A90460020B0E703234A461A4391469F
:1009AC000320FC33A9E70D00FF200022C005ED0752
:1009BC0010432843E0BCBA46B146A846F0BD0D0032
:1009CC0000200022F2E75346022BEDD0032B33D04C
:1009DC00A046012B05D100200022E7E735000328B3
:1009EC007AD03B007F33002B2DDD4246520707D0D7
:1009FC000F2241460A40042A02D004229446E044C5
:100A0C004246120105D54246364B1A403B009046F1
:100A1C008033FE2BC8DC42469201520AD8B2C5E79D
:100A2C0080220025FF20D203C0E78022D20314428B
:100A3C0002D04346134249D08022D20322435202B1
:100A4C00FF20520AB2E70122D31A1B2BC3DC424609
:100A5C00DA4043469E37BB40591E8B411A4353071D
:100A6C0004D00F231340042B00D00432530129D59A
:100A7C00012000229AE7424663015501AB4215D290
:100A8C001B200022013F01261C0052005B00002CA1
:100A9C0001DB9D4201D85B1B324301380028F3D1A6
:100AAC00581E8341134398460D009AE71A200122E1
:100ABC005B1BE8E7023B5A4253415B423500002284
:100ACC00D8B273E792010020520A6FE71A43520220
:100ADC003500FF20520A69E74446ADE7E8BB010840
:100AEC0028BC0108FFFFFFF770B542004E024C0016
:100AFC0045026D0A120EC30F760A240EC90FFF2A87
:100B0C0010D0FF2C0CD00120A2420AD1B54208D142
:100B1C008B420FD0002A04D12800431E984100E0DC
:100B2C00012070BD0120FF2CFBD13543F9D14B4086
:100B3C001800F6E70020F4E730B5420044024D02FD
:100B4C00C30F4800640A120E6D0A000EC90FFF2A6B
:100B5C0019D0FF280BD0002A1ED100280BD1002D54
:100B6C0027D0002C34D100292FD0080030BD002D07
:100B7C0028D1002A01D1002CF5D08B4207D1002BB3
:100B8C0023D01800F2E7002C1CD1FF2814D0581EDB
:100B9C00022318400138E9E70028F8D08B42F6D13F
:100BAC008242F4DCEBDBAC42F1D80020AC42DDD26B
:100BBC00E5E7002CDAD0EAE7002D03D18B42E6D131
:100BCC000020D3E702204042D0E701204042CDE78D
:100BDC008B42E8D0DBE7C04630B5420044024D0200
:100BEC00C30F4800640A120E6D0A000EC90FFF2ACB
:100BFC001AD0FF280ED0002A1ED100280ED1002DAD
:100C0C002AD0002C0CD08B421DD0581E0223184029
:100C1C00013810E0002D0DD1002A20D1002C1ED15E
:100C2C00002923D0080006E0002C03D1FF28ECD1CA
:100C3C00002D17D0022030BD0028E6D08B42E4D125
:100C4C008242E2DC04DBAC42DFD80020AC42F2D2C0
:100C5C00002B0BD01800EEE7002CECD0D5E78B4224
:100C6C00D3D1F5E700208B42E5D0CEE701204042FE
:100C7C00E1E7C046F0B54F464646D64643025B0A0E
:100C8C004500C0B599460F1C2D0EC60F002D00D186
:100C9C0088E0FF2D00D18DE08022DB00D2041A43C6
:100CAC000023914698469A467F3D7C027B00640A5D
:100CBC001B0EFF0F002B68D0FF2B21D08022E400ED
:100CCC00D204144342467F3B5B1900215D1C0A2A67
:100CDC002EDC7E404246022A23DC013A012A00D94E
:100CEC00BDE002296ED001292CD100200022C005C4
:100CFC00F60710433043E0BCBA46B146A846F0BDF7
:100D0C002B00FF33002C65D00322414611433200E7
:100D1C00013588467A40FF350A2900DDD8E01600F7
:100D2C000321404601228240A620C000024220D06E
:100D3C005346022B46D0032B00D1BBE051464C4608
:100D4C000129D2D02B007F33002B70DD620704D039
:100D5C000F222240042A00D00434220103D5634B15
:100D6C001C402B008033FE2B2CDCA201520AD8B283
:100D7C00BDE790208000024227D1B938FF381042DD
:100D8C006DD03E00A1468A46D2E7002C41D101230A
:100D9C0042461A4390462B00424601215D1C0A2A0A
:100DAC0097DDC5E7002B26D104239846033B00258D
:100DBC009A467AE7002B18D108239846063BFF2564
:100DCC009A4672E7FF20002291E780220026FF203E
:100DDC00D2038CE741460222013511438846FF3588
:100DEC000A29A5DC02217E4074E70C239846093BB6
:100DFC00FF259A4659E7180002F0B2F94A46431FFC
:100E0C0076259A4000236D42914698469A462D1AB3
:100E1C004BE7200002F0A4F94246431F9C402B1ADA
:100E2C00763B00215D1C0A2A00DC52E780E7012298
:100E3C00D31A1B2B00DD58E79E352200AC40DA405C
:100E4C00631E9C412243530704D00F231340042BF1
:100E5C0000D00432530137D50120002247E7210C82
:100E6C004A462404240C2700100C1204120C444390
:100E7C005743484351433A0C09195218944203D929
:100E8C00802149028C4660443F0411043F0CC9196F
:100E9C008C01671EBC41120C890E12180C43920176
:100EAC00144312010ED5012362081C40144349E778
:100EBC003E00A14680224B46D2031A435202FF2029
:100ECC00520A14E71D003DE792010020520A0EE77A
:100EDC000F29EDD180224B46D2031342EAD01442A3
:100EEC00E8D13E00FF20224301E7C046FFFFFFF799
:100EFC00F8B54746CE464E0243024500720AC40F6F
:100F0C00480080B594465F0A2D0E9B09000EC90F50
:100F1C00B609FF2824D0012251402A1A8C420FD046
:100F2C00002A00DC6AE1002835D1002E00D1A2E0B5
:100F3C00511E012A00D124E1FF2A21D00A002FE002
:100F4C00002A00DC67E100285ED0FF2D18D080213C
:100F5C00C9040E431B2A00DC76E02A00013332E080
:100F6C002A00FF3A9146002E42D08C4255D04A4678
:100F7C00002A00D19CE0002D00D177E00C0033005A
:100F8C00DB08002B00D16EE08022D20313435B02FE
:100F9C00FF205B0A24E0FF2DF2D08021C9040E4310
:100FAC0001211B2A08DC31002020D140821A9640F6
:100FBC003200501E824111435B1A5A0160D4072142
:100FCC002A00194057D00F211940042900D00433AE
:100FDC00590150D5501CFE2A45D09B01C0B25B0A6A
:100FEC00C0051843E4072043C0BCB946B046F8BD61
:100FFC00012251408C42BAD14A46002A10D0002D11
:10100C0000D198E00023BBE7002E34D0511E012AFA
:10101C006ED0FF2AB4D00A009CE7002A00D088E0EA
:10102C00FE206A1C104200D092E0002D00D0A4E0FB
:10103C00002B00D1CBE0002E00D0CAE00022DB0850
:10104C005B025B0AD0B2CBE731002020D140821A80
:10105C0096403200501E82410A439B185A01AED56D
:10106C006A1CFE2D4AD1FF200023B9E7FF22002B7A
:10107C004BD10C003300DB08FF2A00D181E7DFE7FE
:10108C009F01BF09380002F06BF805388740854294
:10109C0021DC3B002021421B0132D3408A1A9740AD
:1010AC007A1E974100223B43590700D08BE78FE70C
:1010BC00FE206A1C104212D1002D52D1002B7CD084
:1010CC00002EBBD09A1B500100D48BE001240022CF
:1010DC00F31A0C40E8E7564B2A1A3B40E4E79F1BF7
:1010EC007A0146D4002FCDD100240020002377E7CD
:1010FC009B1901250132590100D460E701214D48AB
:10110C0019405B0803400B43CEE7571E012A5AD007
:10111C000C00FF2A33D001221B2F07DC2021C91B16
:10112C001A008B40FA40591E8B411A430500B31A22
:10113C0043E7002D23D1FF22002B9BD0511E012A07
:10114C00D6D0FF2A1BD01B292CDD0200731C3AE7DA
:10115C00FF2A88D09B195B08590700D033E7DB08BE
:10116C006EE7002B10D1002E43D0012433000C402D
:10117C0006E70124F71A0C4084E7002B04D1330056
:10118C00FEE601259B1B18E7002E00D1F8E6802215
:10119C00D203974204D3944502D2012433000C406D
:1011AC00DB08F1E61A002025CA40691A8B40591E4B
:1011BC008B41134305009B1950E7002E94D001245A
:1011CC0033000C403AE70C000125F31AF5E6330026
:1011DC0034E79B1900225901C1D5154A1340DB088D
:1011EC0001222DE7002A00D17EE713000022DB0844
:1011FC0026E780230024FF20DB03F1E6002A00D140
:10120C0056E7471B3A00002D00D130E78022D2046C
:10121C000C0013437FE7002A00D101E7411B002D8E
:10122C0001D10A0088E78022D20413438BE7C04621
:10123C00FFFFFFFBFFFFFF7D41024200C30F490A86
:10124C000020120E7E2A03DD9D2A02DD094A981821
:10125C007047802000040143952A07DC9620821AEF
:10126C00D1404842002BF3D10800F1E7963A914067
:10127C00F7E7C046FFFFFF7F70B5002813D0C317F8
:10128C00C5185D40C40F280001F06AFF9E230100C1
:10129C001B1A962B0FDC082834D008398D406D02B0
:1012AC006D0AD8B202E0002400200025C0052843B6
:1012BC00E407204370BD992B16DC421F052800D093
:1012CC0095402A00114802406E0709D00F26354080
:1012DC00042D05D00432550102D59F2302405B1A20
:1012EC009201550AD8B2E1E70522121A2800D04023
:1012FC00020008001B3085402800451EA84102430F
:10130C001500DEE76D0296206D0ACFE7FFFFFFFBAD
:10131C00F0B557464E464546DE46E0B583B00090E4
:10132C0001910C034F00CE0F610A009C1D03640F4A
:10133C000C43009900920193C80059004B0D99463B
:10134C00009A019B6D0AD90F530F2B439A46009BB1
:10135C007F0DDA0094464A46B046BA1A8E4200D146
:10136C00B0E0002A00DC78E04946002900D1E9E031
:10137C00C9498F4200D195E10125382A16DC80211C
:10138C00534609040B439A461F2A00DDE7E120214E
:10139C0055468B1A61469D40D1400D43614699409C
:1013AC004B1E99415346D3400D43E41A451BA842AA
:1013BC0080414042241A230200D40FE16402640AE3
:1013CC00002C00D139E1200001F0CAFE0300083BDB
:1013DC0020212800CA1AD0409C4002009D40224384
:1013EC009F4200DD73E1D81B0130091A2C008D409F
:1013FC00C4406B1E9D411300C2408B402543002707
:10140C0014001D436B0709D00F232B40042B05D070
:10141C002B1DAB42AD416D4264191D00230200D45B
:10142C002DE19D4A0137974200D1D3E046469B49B6
:10143C00ED0821404A072A437C054D022D0B640D13
:10144C0024052C43F60734431000210003B0F0BCF4
:10145C00BB46B246A946A046F0BD002A00D184E0A6
:10146C004A46D21B002F00D06DE12500054300D168
:10147C0027E1561E012A00D13BE2874DAA4200D13A
:10148C006AE20125382E12DC32001F2A00DDF8E159
:10149C0020262500B61A07005346B040D440B5406C
:1014AC00D740461EB0411B1B9A463D43054362463E
:1014BC00551BAC459241534652420E004F4688464E
:1014CC009C1A78E7002A00DC8EE04946002975D189
:1014DC0061465346194300D1F6E0511E012A00D152
:1014EC0091E16D4DAA4200D1DCE00125382914DCD4
:1014FC000A001F2A00DDA2E120215346891A8B40E5
:10150C001D006346D3401D4363468B4019004B1EA0
:10151C0099415346D3400D43E4182D188542804120
:10152C0040422418230259D55B4B01379F4251D0BE
:10153C0001215A4B6A081C4029400A43E507154310
:10154C0064085FE761465346194300D1BCE0511E65
:10155C00012A00D164E1504DAA4200D16AE1012573
:10156C00382900DD22E70A000EE74D4A7D1C1542A2
:10157C0000D0D0E025006246534605431A43002FA5
:10158C0000D037E1002D00D1A8E1002A00D16AE19A
:10159C006346C51A5346E21AA8429B415B42D31AD2
:1015AC001A0200D403E263461D1AAC45924153461D
:1015BC0052421C1B0E008846A41A23E736498F4260
:1015CC0070D00125382AA8DC8021534609040B432E
:1015DC009A468EE73C000025002231E707232B407A
:1015EC00002B00D010E793E0002A74D04A46D21B9F
:1015FC00002F00D1C7E02849894500D185E101259C
:10160C00382A12DC802109040C431F2A00DDABE1CF
:10161C0020212500891A070088408D40D740411EA3
:10162C008841D4403D430543A244654465459241FD
:10163C005242524414004F4674E7280001F090FDCA
:10164C00030018331F2B00DCC2E62A000838824046
:10165C009F4200DDA9E0DB1B581C1F2800DCACE11D
:10166C0015001F3BDD40202805D040231B1A9A4053
:10167C00531E9A411543072300272B40B0E7ED0872
:10168C00054B62072A43E4089F420FD02403250B25
:10169C007C05640DD4E6C046FF070000FFFF7FFF0A
:1016AC00FE070000C00862070243E408130023434E
:1016BC0000D186E180252D0325432D03C34C2D0B32
:1016CC00BEE6604654460E001700C508D8E7C04C6D
:1016DC00FF1A144096E6BF4A791C11426BD12200C6
:1016EC000243002F00D0DBE0002A00D12DE162463E
:1016FC0053461A4300D1B6E06346C5188542804173
:10170C00544440422418230202D50F00B04B1C4015
:10171C003A002800D8E76246851AA84292415346FF
:10172C0052429146E31A1A004B46D21A13009146C4
:10173C001A0254D44A464C462A4300D040E60026AE
:10174C00002400257CE6A14DA94500D190E001259F
:10175C00382A00DDABE680252D042C4395E61100DC
:10176C0055462039CD40A946202A06D04021534663
:10177C008A1A934062461A43944665466B1E9D41F5
:10178C004B461D4312E62100014300D1C4E0511E1B
:10179C00012A00D1FBE08D4DAA4200D1B5E0012514
:1017AC00382900DD41E70A002FE7894CFF1A144065
:1017BC006207E4086AE7854A914200D1E3E0634698
:1017CC00C218824280412300404253441B18DD075B
:1017DC005C080723520815430F002B4000E76346B3
:1017EC001D1AAC459241534652421C1B0E008846B2
:1017FC00A41AE5E5002D00D091E0002A38D1802410
:10180C000026240356E76346C5188542804154449C
:10181C00404224180127230200D4DFE6022787E682
:10182C006346C51AA842804153464042E41A012738
:10183C00241AC0E56207C0080243E40836E7110029
:10184C0053462039CB409946202A06D04021534696
:10185C008A1A934062461A43944665466B1E9D4114
:10186C004B461D4359E66207C0080243E4080DE7E6
:10187C0053465A076346D80853460E000243DC0809
:10188C0014E715002600203DEE40202A03D0402509
:10189C00AA1A94402043421E90410500354306E6A7
:1018AC00002A7CD062465346C0081A4300D1FAE69F
:1018BC00620710438022E4081203144208D0D908AE
:1018CC00114205D16346D80853460C005B071843F8
:1018DC00420FC000C00852070243E7E6002A00D1BD
:1018EC002DE76346D80853465A070E000243DC081E
:1018FC00CCE663461D1AAC459241534652421C1B22
:10190C000E008846A41A013755E56346D90853469C
:10191C005A070A43DC08C9E660465446D4E6C008B8
:10192C00002A00D1BFE6620710438022E4081203AC
:10193C001442CDD0DD081542CAD16346D8085346AF
:10194C005B070E002C001843C2E76346D9085346C8
:10195C005A070A43DC0899E66346D80853465A07E7
:10196C000E000243DC08A1E6110027002039CF400D
:10197C00202A03D040218A1A94402043421E9041D1
:10198C0005003D4351E60C000025002258E560445B
:10199C0060459241544452420500A4183AE753461C
:1019AC005A076346D90853460A43DC087EE61A00F8
:1019BC001C002A4300D0ABE6C1E620210025091A01
:1019CC0019E500220025014C3AE5C046FF0700004E
:1019DC00FFFF7FFFFE070000F0B5DE464546574689
:1019EC004E46E0B587B0009201930B031B0B9B4650
:1019FC00CA0F4B00040080465B0D029200D16AE1D5
:101A0C00D44A934200D18CE15946420FC9000A4393
:101A1C00802109041143C2009046CF4A8946924660
:101A2C009A44002300240393009E019F3B031B0B4D
:101A3C009B467B0030005B0DFD0F002B00D128E195
:101A4C00C44A934200D177E15946720FC9000A4348
:101A5C008021090411438B46BF49F2008C46514644
:101A6C006344CB1A9A460023029E6E400F2C27D853
:101A7C00BA49A40009598F46CB464246029E039BA5
:101A8C00022B16D0032B00D1A6E2012B00D0DFE0F5
:101A9C0000220023002490461B052343F607334302
:101AAC004046190007B0F0BCBB46B246A946A0465A
:101ABC00F0BD002200249046A64BEDE72E00DFE798
:101ACC00CB4500D2D4E100D1CFE101235B429C464F
:101ADC00444648460027E2445B46150E1B021D4354
:101AEC00190C2B04120200951D0C914602910395C2
:101AFC00FEF7BAFB02006A430B04210C8046194323
:101B0C008A4209D9009D0123AC465B4261449C4644
:101B1C00E0448D4200D8FBE1881A0299FEF7A4FB41
:101B2C00039A240442430904240C03000C43A242EC
:101B3C0006D90099013B8C466444A14200D8E1E1EE
:101B4C00A01A424612041A4393464B4659461B0CA4
:101B5C001D0004930B0449460904090C0C001B0CD2
:101B6C005C43120C6B43884651436A43250CAC46CC
:101B7C005B186344994203D9802149028C46624424
:101B8C00190C24041B04240C8A181C19904202D32F
:101B9C0016D1A74214D25B46009D013B4F440593DE
:101BAC004F459B41AC465B426344C018854200D311
:101BBC00A1E1824200D9F6E100D1F1E1059B9B46FF
:101BCC003C1BA742BF41009D801A7F42C01B85422F
:101BDC0000D1D0E10299FEF747FB039A0B04424374
:101BEC00210C070019438A4200D978E1881A02991E
:101BFC00FEF73AFB039A240442430904240C030025
:101C0C000C43A24200D95DE14146A41A3A041A439E
:101C1C00049D13041B0C594347466B439C46100C04
:101C2C0047430B0CBC44634468439F4203D9802553
:101C3C006D02AC4660441F0C09041B04090C3F18D0
:101C4C005B18BC4200D202E100D1FDE001231A4333
:101C5C00434B5344002B00DCAEE0510700D098E11D
:101C6C005946C90106D559463E4B194080238B462F
:101C7C00DB0053443C498B4200DD1AE75946D2083D
:101C8C00490711435A465B0554028846240B5B0DE9
:101C9C0002E75A46009B1A4300D17EE05B46002BBC
:101CAC0000D100E1584601F05BFA020003000B3A48
:101CBC001D27009EBA1A19005846D640083988408C
:101CCC00320002439346009A8A40284953448A467C
:101CDC009A440023C8E65B460343994656D05B46BC
:101CEC00002B00D1CDE0584601F03AFA0B235B42B1
:101CFC009C460200844466461D239B1B2600110053
:101D0C005846DE4008398840330003439946230087
:101D1C008B409846164B00249B1A9A46002303933B
:101D2C0082E65A46024391462AD100229A46022361
:101D3C0090460824039377E65A46009B1A430D4BB2
:101D4C009C46E244002A17D102231C4300239B46E5
:101D5C00023389E6FF07000001FCFFFF64BC0108A9
:101D6C00FF030000FFFFFFFEFE070000F30300006F
:101D7C000DFCFFFF01F8FFFF032332001C4373E649
:101D8C009A460323D9460C2403934DE60023984628
:101D9C009A4601330424039346E601231C43002393
:101DAC009B46013360E60023802498460026924B24
:101DBC00240371E6012252420121C91A382900DD9F
:101DCC0066E61F2900DCABE01F204042C31A5846D0
:101DDC00D8400300202904D05846884951448840F3
:101DEC000243511E8A411A43072319000024114053
:101DFC0013420CD00F231340042B00D1F9E0111D1A
:101E0C0091429B410A005B4259075B021C0BD208B2
:101E1C000A43904600233FE680244B46240323428A
:101E2C0009D05B46234206D11C4324032E00904666
:101E3C00714B240B30E680244B4624031C432403B3
:101E4C00029E6D4B240B27E6002B00D100E7009877
:101E5C00511E84466444844200D284E0BC4200D2C9
:101E6C00AEE000D1C1E00A00F0E6424500D92CE614
:101E7C004B46DC07580843465B081C434346DF07C8
:101E8C002AE601F06DF915239C4684440200634652
:101E9C0020321C2B00DC2EE72300083883409946A7
:101EAC000023984636E701F05BF902000300153277
:101EBC0020331C2A00DCFBE6009908388140002204
:101ECC008B4602E70099013B8C466444A14200D941
:101EDC009AE6A24200D897E6831E644494E6AC4688
:101EEC006144013F8D4200D980E68A4200D87DE6EC
:101EFC00871E61447AE6854200D05FE6B94500D979
:101F0C005CE656E6A24200D81AE6831E644417E645
:101F1C008A4200D800E6AC46831E98466144FBE535
:101F2C0037481400504482405B4617008340CC4035
:101F3C007A1E974123433B431A005B46CB40510723
:101F4C0009D00F211140042905D0111D9142924155
:101F5C0052429B180A00190200D455E700220123B3
:101F6C000024904698E50A00BC4200D06EE64B4532
:101F7C0000D06BE66CE6234B234A5344924500DABF
:101F8C0018E7012149420A1D8A42894149428B4482
:101F9C0066E60F211140042900D161E61100F2E739
:101FAC00BC4200D80AE602235B429C4600994F448F
:101FBC004F459B41E3448C465B426344C018FFE5AC
:101FCC004946009D480048458941AC464942614418
:101FDC008146023A6418C7E780245B4624031C43FD
:101FEC0024039046044B240B56E59945E8D30A008C
:101FFC00BDE7002308E7C046FF0700003E040000D1
:10200C001E040000FF03000002FCFFFFF0B5574662
:10201C00DE464E464546E0B50D000400E80F83460B
:10202C000903D80F090B824619488C461F03690017
:10203C005E00490D3F0B760D814218D086420FD0C1
:10204C000120B1420DD1BC450BD1944209D1D345ED
:10205C001CD0002905D160462043431E984100E066
:10206C000120F0BCBB46B246A946A046F0BD0120FB
:10207C008E42F6D1614639430F0017432743F0D106
:10208C005B465246981A431E9841EAE70020E8E75F
:10209C00FF070000F0B557464E464546DE46E0B514
:1020AC000D000F03390B83B00400804601915800DA
:1020BC00E90F314F400D8C466E0019038246914654
:1020CC00760D090BD80FBE421FD0BA450FD0002E8B
:1020DC002FD15546019E3443002D27D10A433AD0C7
:1020EC00002C45D100281AD10120404217E01143A1
:1020FC003BD1002E02D1019F2743F3D0844509D157
:10210C006346002BF0D0604609E0019F27432CD199
:10211C00B24524D063460220013B1840013803B07D
:10212C00F0BCBB46B246A946A046F0BD002CD9D0A7
:10213C00E4E75446002CEDD08445EBD15645E9DC60
:10214C00DEDB019B8B42E5D8DAD1C845E2D8002012
:10215C00C845E4D2D4E70020002CE0D0DAE71143E4
:10216C0003D18445D6D10020D9E702204042D6E7DE
:10217C008445E6D0CEE7C046FF070000F0B55746D1
:10218C004E464546DE46E0B50D000F030400804682
:10219C00E80F390B844683B05800304F400D019145
:1021AC001E03690082469146490D360BD80FB94281
:1021BC0020D0BA450FD000292BD101990C435146A0
:1021CC00002937D1324338D0002C44D1002819D102
:1021DC000120404216E0164313D1002902D1019F81
:1021EC002743F3D0844520D063460220013B18409E
:1021FC00013807E0019F274303D18A45F4D11643E8
:10220C001FD0022003B0F0BCBB46B246A946A04684
:10221C00F0BD5446002CE7D08445E5D15145E3DCB4
:10222C0003DB019BB342DFD80FD06346002BCFD02A
:10223C006046E7E7002CC9D0D4E70020002CE1D0A1
:10224C00D2E78445D0D10020DCE7C845CCD80020AB
:10225C00C845D7D2E9E78445E3D0C5E7FF070000BE
:10226C00F0B55746DE464E464546E0B51F000B031B
:10227C001B0B16009A46CA0F4B000400934687B0FE
:10228C005B0D00D1D5E0BB4A934200D1F8E051463A
:10229C00420FC9000A43802109041143C200914630
:1022AC00B54A8A469D180023984602933C037B004E
:1022BC00FA0F3000240B5B0D009200D196E0AD4A72
:1022CC00934231D0720FE40022438024240414433F
:1022DC00A94AF000944663445B195A1C0192424689
:1022EC0000260A2A42DC5A4600994A409346424646
:1022FC00022A32DC013A012A00D949E1022E00D12E
:10230C00CAE0012E3DD100230024002210005A46C1
:10231C001B052343D2071343190007B0F0BCBB467F
:10232C00B246A946A046F0BD924B2643EB18002EB0
:10233C0000D1BBE00322414611435A46884600991E
:10234C004A40802109018C46290061440191414693
:10235C000A2900DD33E293460326424601279740C3
:10236C00A6213A00C9000A400F4231D0029E022E2B
:10237C0000D135E2032E00D1D2E154464846012E5D
:10238C00C1D0019A7D4B94466344002B00DCC0E025
:10239C00420709D00F220240042A05D0021D8242B6
:1023AC008041404224181000E20106D5744B019A7A
:1023BC001C4080239446DB006344724A93426BDCDE
:1023CC006207C00864025B050243240B5B0D9DE7AA
:1023DC00902189000F4263D188223A4200D1D7E084
:1023EC00009BA2469B4681460296BFE723003343DF
:1023FC0000D17FE0002C00D1ADE1200000F0B0FE58
:10240C00020003000B3A1D201900821A3000083913
:10241C00D0408C400443300088405B4AEB1A944611
:10242C0063445A1C0192424600260A2A00DC5AE7F1
:10243C009CE753460343994654D05346002B00D196
:10244C0077E1504600F08CFE0B235B429C46020069
:10245C00844411005046083988401D23804660464C
:10246C001B1A2000D8400300404603439A46230021
:10247C008B4099460023444D9846AD1A029315E7BC
:10248C0052460243914626D100221D000223924659
:10249C0008329046029309E700240022354B35E7B9
:1024AC00002380249B462403324B2FE70222414613
:1024BC0011438022120194462A00624488460192FC
:1024CC000A2900DD52E75A460020009904004A40D0
:1024DC00934602260BE70C221D00032381469046EF
:1024EC000293E3E600239A4604339846033B002507
:1024FC000293DBE6424601331A432B0090465A1CEA
:10250C00019242460024002001260A2A00DCEAE659
:10251C002CE70122D21A382A00DDF4E61F2A00DC4F
:10252C002AE11F214942CB1A2100D9400B00202A55
:10253C0005D0164A019D94466544AC402043421E8A
:10254C0090411843072319000024014003420CD08A
:10255C000F230340042B00D140E1031D8342A4410F
:10256C001800644261076402240BC20800230A436A
:10257C00CCE6C046FF07000001FCFFFFFF03000094
:10258C00FFFFFFFEFE0700000DFCFFFF3E040000F6
:10259C0049464A460904090C0D00160C020C0004AD
:1025AC00000C4543AC4605007543A84615000F00CA
:1025BC007543009202952A00009D6F4365462D0CD1
:1025CC00A94647444F44B84505D91500802252020C
:1025DC009046454402953D0C039565462D043F04F9
:1025EC002D0CAC463D0065440495250C2404240CAC
:1025FC00AC4625007543A84665460F006943414427
:10260C0089466743390C49446E43884503D9802277
:10261C005202904646440D0CA8463500454405959B
:10262C00039D3F04A8463F0C0904C919884445463C
:10263C00039555462E04360C2F0C35004543784334
:10264C0081463800A8462D0CAA46009A5043724386
:10265C004A445244914503D980256D02A946484409
:10266C00150CA94645462D042D0CA84665467D4300
:10267C00120448449044A9463200654662436E43B6
:10268C007C43170C3619BF19BC4203D98024640251
:10269C00A446E144029C039EA446059D66448E42DA
:1026AC008941AC4612043C04120CA2186244494203
:1026BC0054184644A4464645A44182466442A0466A
:1026CC00AA4292418C458941E244D044494252424B
:1026DC000A43A045A44182458941644249420C43C6
:1026EC0041463F0CD2191219CC0D049970020843C3
:1026FC00411E884141464A44F60D5202304349027C
:10270C0014430843D20135D5012243080240134338
:10271C00E0071843640834E6009BA2469B468146BA
:10272C008024534624031C4324034A462E4B240B7B
:10273C00ECE500F015FD15239C468444020063462D
:10274C0020321C2B00DC84E6002399462300083839
:10275C0083409A468EE600F003FD0200030015321A
:10276C0020331C2A00DC4EE602003400083A00201C
:10277C00944052E6019304E61C4B21009C46030056
:10278C00019DD3406544A94019430300AB40581E3A
:10279C00834119430800D4404B0709D00F230B4049
:1027AC00042B05D00B1D8B4280414042241818008D
:1027BC00230200D4D6E6012300240022A6E50F292B
:1027CC00AAD1802352461B031A42A9D01C42A7D17E
:1027DC001C43009B02009B46034B97E50024C1E67B
:1027EC000024014B220091E5FF0700001E040000AD
:1027FC00F0B54E464546DE465746E0B585B00090EE
:10280C0001910C034F00CE0F610A009CB046640F7F
:10281C000C4300997F0DC80011001A001B039C4645
:10282C000091019251004B0D9946019B009DD90FCF
:10283C0063466A0F5B0A1343EA0094469346C14A07
:10284C0003900293914500D1CDE0012569404D469E
:10285C007D1BAA468E4200D180E0002D00DC35E3C2
:10286C004946002900D1DFE0974200D194E152465D
:10287C000125382A19DC8022029B1204134302938F
:10288C0052461F2A00DDE3E1534620226146029D99
:10289C00D21A9540D9400D43614691400A00511E11
:1028AC008A411543029ADA40A41A451BA84280417A
:1028BC004042241A230200D43DE16402640A002C35
:1028CC0000D147E1200000F04BFC0300083B202125
:1028DC002800CA1AD0409C4002009D4022439F42CF
:1028EC0000DD77E1D81B0130091A2C008D40C44063
:1028FC006B1E9D411300C2408B40254300271400E2
:10290C001D436B0709D00F232B40042B05D02B1D27
:10291C00AB42AD416D4264191D00230200D440E16D
:10292C00884A0137974200D101E101264346864986
:10293C00ED0821404A072A437C054D022D0B640DFE
:10294C001E4024052C43F60734431000210005B02B
:10295C00F0BCBB46B246A946A046F0BD002D00DC3B
:10296C00D0E24946002900D0D4E06146029B1943CD
:10297C0000D12BE1691E012D00D1D9E1954200D186
:10298C000AE10125382917DC8A4653461F2B00DD46
:10299C00E7E12022D21A029B614693401D00534668
:1029AC00D940634693401A000D43511E8A41534649
:1029BC001543029ADA40A4182D18854280414042F2
:1029CC002418230200D4B6E05E4B01379F4200D19D
:1029DC00ADE001215C4B6A081C4029400A43E50725
:1029EC00154364088DE7594A029B92466246BA44E5
:1029FC001A432CD08E422ED05246002A60D0002F83
:102A0C0000D1DBE063460E00029CD808620702434B
:102A1C00E4081300234300D154E280252D03254301
:102A2C002D03484C2D0B8CE76146029B194300D1BA
:102A3C00CCE029000139012D00D188E1954200D16B
:102A4C00AAE00125382900DD2FE78A4618E7012284
:102A5C0051408E42D0D15346002B00D1BEE0002F06
:102A6C0000D038E1CA462200024300D1E2E15346CD
:102A7C00591E012B00D10DE2324A924500D1D2E110
:102A8C000127382913DC1F2900DDEEE12022029BEF
:102A9C00521A250007009A46CC4090409540CF40F2
:102AAC00A244421E904153462F43074302933D00DC
:102ABC00654465459241029B52424F46D41880E7CB
:102ACC00234A7D1C154200D0AAE062462500029BD9
:102ADC0005431A43002F00D0F5E0002D00D16BE127
:102AEC00002A00D152E16346C51A029BE21AA842A1
:102AFC009B415B42D31A1A0200D4D5E163461D1ADE
:102B0C00AC4592410126029B52421C1B8846A41ADA
:102B1C000E40F6E697423FD052460125382A00DD9A
:102B2C004AE78022029B1204134302932DE73C00D8
:102B3C000025002205E707232B40002B00D0E2E6FE
:102B4C006BE0C046FF070000FFFF7FFF01F8FFFFAF
:102B5C00FE070000280000F003FB030018331F2BB6
:102B6C0000DCB4E62A00083882409F4200DDB9E060
:102B7C00DB1B581C1F2800DCA0E115001F3BDD40AF
:102B8C00202805D040231B1A9A40531E9A41154306
:102B9C00072300272B40D0E7C00862070243E40854
:102BAC0037E7EA0863071A43D34BE4089F4200D186
:102BBC002FE72403250B7C05640DC2E6CA462200D0
:102BCC00024358D163460E00029C0393039B574665
:102BDC00DA08E7E7C94CFF1A144092E6C84D7A1C94
:102BEC002A4200D084E022000243002F00D0EFE004
:102BFC00002A00D1E5E0624602990A4300D1C5E003
:102C0C006346C5188C468542804164444042241872
:102C1C00230202D5B94B01371C40BA460395D5E7C0
:102C2C006246851AA842924152429146029BE31A8F
:102C3C001A004B46D21A130091461A026CD44A461B
:102C4C004C462A4300D03AE600260024002578E6BC
:102C5C00029953460D00203AD540202B06D0402235
:102C6C00D21A0B00934062461A4393465B465A1E97
:102C7C0093411D4319E653465A1E012B00D1C6E061
:102C8C009D4EB24500D1BDE688460E000125382A7E
:102C9C0010DC1F2A7FDC20212500891A07008840C0
:102CAC008D40D740D440411E8841029B3D431B1BA5
:102CBC00054302936246551BAC459241029B52421E
:102CCC004F469C1AF6E5002D00D0B7E0002A00D143
:102CDC00F0E001260E4063460298D90842070A43E9
:102CEC00C40896E6854CFF1A14406207E40860E7B6
:102CFC0081498A4200D1C9E06346C11881428041B2
:102D0C00029B4042E3181B18DD075C0807234908A7
:102D1C000D4317002B4010E763461D1AAC4592413A
:102D2C000126029B52421C1B8846A41A0E40C6E583
:102D3C006346C518029B854280419C4640426444D0
:102D4C0024180127230200D4F5E6022741E6634646
:102D5C00C51AA8428041029B4042E41A0127241A5A
:102D6C00A8E5029D52462B00203AD3401900534649
:102D7C00202B06D04022D21A2B00934062461A43D5
:102D8C0093465D466B1E9D410D4315E66207C008D8
:102D9C000243E4080DE7110027002039CF40202A18
:102DAC0005D040218A1A9440250005430395039DC4
:102DBC006A1E95413D437DE7002A00D144E7012678
:102DCC000E406346D908029B5A070A43DC08F0E61A
:102DDC00002A28D06246029FC0083A4300D1DCE6A4
:102DEC00620710438022E4081203144209D0FD0844
:102DFC00154206D1634601262C00D8087B071843E0
:102E0C000E40420FC000C0085207024301E6634661
:102E1C001D1AAC459241029B52421C1B0E00884667
:102E2C000127A41A46E56346D908029B5A070A43B0
:102E3C00DC08EEE56346029C0393C7E6C008002A53
:102E4C0000D1AAE6620710438022E4081203144260
:102E5C00D7D0029FFD081542D3D163460126D8086E
:102E6C007B072C0018430E40CBE70A002700203AC2
:102E7C00D740202905D04022521A94402500054302
:102E8C000395039D6A1E95412F4310E614000025FF
:102E9C00002256E5029B60449946604592414C44A1
:102EAC0052420500A4184CE71A001C002A4300D01B
:102EBC00B3E6C9E6802400262403AEE520210025D4
:102ECC00091A17E5002200250B4C3AE5002D00D11C
:102EDC00F6E54B46DA1B9246002F00D16FE6382AF6
:102EEC0005DC80263604344388460E00D1E688463D
:102EFC000E000125DEE6C046FF070000FFFF7FFF46
:102F0C00FE070000002D00D168E64B46D91B002FB0
:102F1C0001D18A46A7E50127382900DDC7E58022C3
:102F2C0012041443AFE5C046F0B5C6461E03360B7B
:102F3C00B0460D4E0C034D005F0000B5240B6D0D1B
:102F4C007F0DB5420BD0084900208F4204D1464674
:102F5C0016433000431E984180BCB846F0BD044374
:102F6C000120002CF8D1EEE7FF07000070B5002817
:102F7C0016D0C317C5185D40C40F280000F0F0F838
:102F8C00104B1B1A5B055B0D0A2814DC02002E008B
:102F9C00153296400B22121AD5402D032D0B03E04F
:102FAC0000240023002500261B052B43E4072343A4
:102FBC003000190070BD0B3885402D0300262D0BF9
:102FCC00F2E7C0461E04000070B542024300C40F75
:102FDC00FE201B0E591C550A08420CD0E02189001A
:102FEC008C466D07120B63441B051343E407234304
:102FFC002800190070BD002B14D1002D1BD0280007
:10300C0000F0AEF80A281CDC0B232A001B1ADA404D
:10301C00030015339D400E4B12031B1A5B05120B5C
:10302C005B0DE1E7002D09D0130B802212031A432C
:10303C006D07084BD8E700230022D5E70022054B8B
:10304C00D2E703002A000B3B9A400025E3E7C04679
:10305C0089030000FF070000F0B54B000F035B0D68
:10306C003B4C450F83B07F0A5E1C2F4300900191AF
:10307C00CA0FC50026420BD036495C18FE2C13DD56
:10308C00FF200023C0051843D207104303B0F0BD46
:10309C00002B02D100200023F4E73D43F0D0802325
:1030AC00DB03FF203B43EDE7002C14DD009BFF000E
:1030BC009B01581E8341690F3B430B43590741D079
:1030CC000F211940042928D00433590125D5013486
:1030DC000023E0B2D6E721001731DBDB80211E2074
:1030EC0009043943001B1F281BDD02267642341BC2
:1030FC000E00E6403400202804D017488446634470
:10310C0099400D432B00591E8B412343590715D071
:10311C000F2100241940042917D19B015B0AE0B24E
:10312C00B0E70E4C1C192B00A540C340A140681EF3
:10313C00854129430B4300245907C1D19B01002031
:10314C005B0A9FE7DB08E0B29CE70433E5E7C04687
:10315C00FE07000080FCFFFFA2FCFFFF82FCFFFFCC
:10316C001C2101231B04984201D3000C10391B0AAB
:10317C00984201D3000A08391B09984201D300096F
:10318C00043902A2105C40187047C04604030202C6
:10319C000101010100000000000000007047002345
:1031AC0003717047704710B50400082116F0D5FC68
:1031BC00200010BD2F4B304A1B681278343310B5E9
:1031CC001B78002A29D0002B29D080212B4809F00C
:1031DC00B3F9002829D00121294809F0ADF90028BC
:1031EC003CD00221264809F0A7F900283ED08021C6
:1031FC002348490109F0A0F9002826D010212048C5
:10320C0009F09AF9002818D080211C48890109F08E
:10321C0093F900282CD1302008E0012BD5D1802146
:10322C00164809F089F9002801D1352010BD01217B
:10323C00134809F081F9002801D13420F6E7022166
:10324C000F4809F079F9002801D13620EEE78021EA
:10325C000B48490109F070F9002801D13820E5E745
:10326C001021074809F068F90028CDD13220DDE79C
:10327C000020DBE7D0620020C8620020000800506C
:10328C000004005070B504000D00FFF793FF237984
:10329C00834201D1002070BD20710028FAD0287023
:1032AC000120F8E7F7B5A023040010008022DB050D
:1032BC0052009A62484BFD3A1A70484A260C019209
:1032CC001268F6B21673022697683742FCD0260AAB
:1032DC00F6B21673022697683742FCD0E4B2147328
:1032EC000224032803D8FCF71BFF26160F08966848
:1032FC002642FCD0147B00241473022496682642C8
:10330C00FCD0147B00241473022496682642FCD053
:10331C00147B00241473022496682642FCD0147B80
:10332C0000241473022804D0032803D0012802D1EE
:10333C00147B147B127B00260227B446021F284CF8
:10334C008A18561A032E1ADC0C00A24235D8002417
:10335C008A426441019A64421568802234400C19F7
:10336C00A9681142FCD1A0228021D20549009161AB
:10337C00042800D904200022824229DBF7BDA6686C
:10338C003E42FCD01E780E7066461E70A6683E4209
:10339C00FCD01E784E7066461E70A6683E42FCD06D
:1033AC001E788E7066461E70A6683E42FCD01E7853
:1033BC00CE70664604311E70C3E70227084DAD6817
:1033CC003D42FAD01D782570002501341D70BCE7F4
:1033DC001978A1540132CFE70C3800404C0400207E
:1033EC0000380040F7B5019101213A4B1970A02328
:1033FC00FF31DB059962384BFD391B6819730139B4
:10340C009C680C42FCD0010CC9B2197302219C6857
:10341C000C42FCD0010AC9B2197302219C680C42FF
:10342C00FCD08021C0B2187398680842FCD1197B7B
:10343C002A48197B197B197B5968294F014059601F
:10344C008021586849010143596001213868254D94
:10345C0004688C4304603C6C1C273C400F00A74064
:10346C003C006E6834436C601C000C260C344260CB
:10347C0000948460019CC4600468B443046002241A
:10348C0006682643066006680E4306605868164EAA
:10349C0008435860306807688F4307606F68366C64
:1034AC00BC461C273E400F00B7403E0067463E43DB
:1034BC006E604260009A8260019AC2600268114399
:1034CC004022016019680A431A605A6814435C6010
:1034DC00F7BDC046CC0000204C040020FF9FFFFF2E
:1034EC009403002000000240380300201C201349E4
:1034FC0030B50B6C124A03401A3805009D40146815
:10350C002B00254219D009680C68044215D00A24F6
:10351C000868A043086051680B435360094B186856
:10352C0080238268110019401A42FAD1A02380220C
:10353C00DB0552009A61044B197030BD94030020D6
:10354C00000002404C040020CC00002010B5FFF716
:10355C00A9FE10BD10B5FFF745FF10BD024A137848
:10356C00002BFCD17047C046CC000020034B1A68DE
:10357C00402311680B4313607047C0464C04002075
:10358C00A0238022802130B5084C9200DB059A6282
:10359C002468074AC901916220738020A5680542FE
:1035AC00FCD19161802292009A6130BDB004002060
:1035BC000004005070B5A02380248025DB05A400F6
:1035CC009C62104B104C1B68ED01A5621873802097
:1035DC009E680642FCD1A56102248A18D2B20878F2
:1035EC000131187398682042FCD0C8B29042F6D1D1
:1035FC00802299681142FCD1A0238022DB05920025
:10360C009A6170BDB00400200004005010B5292050
:10361C00FFF7B6FF642008F09BFC10BDF0B51C0052
:10362C00184B85B016000093174A1B8807000D0035
:10363C000192834202D11388B3420DD002AA7BBA05
:10364C00938073BAD3802A20042203A9FFF7B2FF18
:10365C00009B1F80019B1E800C4F0D4E3B88AB4284
:10366C0002D13388A3420BD002AA6BBA938063BAFF
:10367C00D3802B20042203A9FFF79CFF3D803480CC
:10368C0005B0F0BD06000020040000200200002060
:10369C0000000020F7B501900800110001221D0068
:1036AC0008AB1C882C4B2D4E1A70402332681768BF
:1036BC003B431360631E6A1ECB1882189BB292B2F6
:1036CC00FFF7ACFFA023802280212C20DB05920089
:1036DC009A62234B3268C901996210735430966810
:1036EC000642FCD19961F02340211B015360136801
:1036FC001C4E8B431360012331681B480F68366CDA
:10370C009F430F6057686C4307405760174F042561
:10371C00786800901C2006401800B0400600009805
:10372C0006437E604C60140001980C348C60C860B9
:10373C000C684020AC430C600A240D682C430C60D0
:10374C000C6823430B601368184302231060516804
:10375C000B435360F7BDC046CD000020B0040020E1
:10376C0000040050F0030020FFBFFFFF00000240E8
:10377C00184B13B51C68636A01939F23019A5B0075
:10378C009A4203D9019A04339A4212D3A021A36A14
:10379C0001989BB258434900A030FCF7DFFC0E4B5C
:1037AC000E4AC3189BB2934203D8012380B2A06285
:1037BC0063610B4A138801339BB213800122236887
:1037CC00934323600023636202F0CEFD02F0BDF947
:1037DC0013BDC046A002002017FCFFFF861300009B
:1037EC00CE000020012210B5024B1B681A6002F0BB
:1037FC00B1F910BDA0020020402337B53D4C11207B
:10380C00226811680B431360FFF7BAFE642008F0BE
:10381C009FFB1320FFF7B4FE642008F099FB3822BD
:10382C002368DC24196818681140904318601868E4
:10383C0002431A608020A0228000D2059062802072
:10384C002D4AC00190621C735C3C9D682542FCD1E2
:10385C0090610122986804001440104248D18022E3
:10386C001C7398681042FCD1A0228024D205A400BD
:10387C00187B94611A68C93CFF3CA2431A601A6811
:10388C0001AC0A431A60002814D1482301222100FC
:10389C0036302370FFF78EFE642008F059FBF823B6
:1038AC00B1205B01022221002380FFF783FE6420FC
:1038BC0008F04EFB05230025210001223A2023703D
:1038CC00FFF778FE642008F043FB2100012235202D
:1038DC002570FFF76FFE642008F03AFB02222100EE
:1038EC0044206570FFF766FE642008F031FB37BD9D
:1038FC00187BAFE7B00400200004005010B5A024E2
:10390C00E40500220221200008F01CFE642008F0CF
:10391C001FFB01220221200008F014FE642008F095
:10392C0017FB10BD002210B51100092008F02EFB6A
:10393C00092008F055FB10BD014B1878C0B2704738
:10394C00CD00002013B504AC24880094FFF7A2FE30
:10395C0013BD000002221E4B10B5196811421FD076
:10396C001C490968086810421AD00A240868A04348
:10397C00086059680A435A600022174B1A70174B9B
:10398C0080321B6899681142FCD1A0228021D2059B
:10399C0089009161E022D2005A6002F0E0FC10BD77
:1039AC001A689207FBD50B4A126811680907F6D5FD
:1039BC000E201168814311600122596808480A439E
:1039CC00B2215A604900074B074A17F01DF8C04650
:1039DC0000000240F0030020CD000020B0040020C5
:1039EC00C0BC010881DC0108F7BC0108064B821C35
:1039FC001B6801205B6A9BB29A4203DB034B18885D
:103A0C00431E98417047C046A0020020CE00002003
:103A1C000138002300B5032806D8084B5B18FCF7C7
:103A2C007FFB0205070A9B79180000BD9B7EFBE714
:103A3C002E331B78F8E74233FBE7C046D00000205A
:103A4C0070B50D00040008F07DFA17F0C9F817F0F6
:103A5C00F7F8291B0131FCF7F1FC6018C0B270BDFE
:103A6C000138C3B20020032B02D8024A9B0098589D
:103A7C007047C04630BD0108F0B5050085B0FFF7B2
:103A8C00EFFFAB1E00240290022B02D8AC00043CCA
:103A9C00E4B22600271DFFB20022300013000221E1
:103AAC000092013601F0B6FCB742F5D12600029B1C
:103ABC001B791B19B34201DC05B0F0BD00212800B5
:103ACC00FFF7A6FF012103902800FFF7A1FF0221B9
:103ADC0007002800FFF79CFF3B00009002213000FC
:103AEC00039A01F097FC0136E1E7000070B5012460
:103AFC00234B244D1870E0B2FFF7B2FF0134056080
:103B0C00052CF8D10421204B204A9961FB311977FF
:103B1C001F495A60D9621900002230310A701D49C0
:103B2C0007201964190044310A7081214900598118
:103B3C00FF39197318490126D983591CC8771749BD
:103B4C00013059861900343108701918F9204001D8
:103B5C00C88719000C201A72DA815A84DA864A3323
:103B6C0048311A800E4B0870DC789D79651BA54294
:103B7C0000DB70BDE0B2FFF773FF013C8673F6E724
:103B8C0021010020FEFEFEFED00000200400FF00FC
:103B9C000400FFFF040000FF0C0B000016150000D2
:103BAC0024010020002370B51A0019000500012023
:103BBC0001F08AFC0021012001F0A6FD012001F09A
:103BCC002DFD002302201A00190001F07DFC0021BC
:103BDC00022001F099FD022001F020FD00230320BA
:103BEC0019001A0001F070FC0021032001F08CFD7B
:103BFC00032001F013FD2800FFF778FF0124A542F4
:103C0C000ADA0122074B642102201A7001F07CFDB4
:103C1C00022001F003FD70BDE0B2FFF72DFF01346F
:103C2C00EDE7C04620010020F0B501252F0087B03C
:103C3C00144B1B78AB4201DA07B0F0BDEEB230008A
:103C4C00FFF70EFF0400031D039300213000FFF764
:103C5C00DFFE390004903000FFF7DAFE02210590F8
:103C6C003000FFF7D5FE030039002078049A00934A
:103C7C00059B01F0CFFB039B01349C42E5D1013540
:103C8C00D6E7C046210100200022F0B50D00477A8E
:103C9C0085B0130004000121C05D009201F0BAFB55
:103CAC006B1E012B06D9EB1E012B20D9FF23E355EC
:103CBC0005B0F0BD267B237B62799B1AB342F5DA03
:103CCC0000212800FFF7A4FE012102902800FFF735
:103CDC009FFE022103902800FFF79AFE032100901B
:103CEC00039B3000029A01F095FB013EE3E7267B33
:103CFC00237B62799B18B342D8DD00212800FFF7A3
:103D0C0087FE012102902800FFF782FE022103901A
:103D1C002800FFF77DFE03210090039B3000029AE0
:103D2C0001F078FB0136E3E710B5002001F0BEF896
:103D3C0010BD0000F0B508000C0087B01600FFF7AE
:103D4C008FFEA31E00250390022B02D8A500043D74
:103D5C00EDB230002A49FCF7CFF9002826D12E000D
:103D6C00022700212000FFF753FE012104902000C0
:103D7C00FFF74EFE390005902000FFF749FE059B2A
:103D8C003900049A0090300001F044FBF0B2FA22A2
:103D9C00390001F00BFD039B01361B795B19B34213
:103DAC00DFDA022001F03AFC07B0F0BD3000154913
:103DBC00FCF7A2F90028F4D12E00022700212000E4
:103DCC00FFF726FE012104902000FFF721FE3900A9
:103DDC0005902000FFF71CFE059B3900049A00900B
:103DEC00300001F017FBF0B21E22390001F0DEFCAE
:103DFC00039B01361B795B19B342DFDAD1E7C0466E
:103E0C0011BD010821BD0108F0B585B00400FFF714
:103E1C0027FE0027050001263B0033400293374262
:103E2C002FD1C82008F094F802992000FFF7F0FD7C
:103E3C00310002902000FFF7EBFD022103902000DF
:103E4C00FFF7E6FD03006A7A3100A85C029A009342
:103E5C00039B01F0DFFA6B7A1E223100E85C01F063
:103E6C00A5FC194AF8B22100FFF764FF01373000B6
:103E7C0001F0D4FB072FCFD12000FFF7FDFD05B0DB
:103E8C00F0BDFA2008F064F800212000FFF7C0FD17
:103E9C00310002902000FFF7BBFD022103902000AF
:103EAC00FFF7B6FD03006A7A3100A85C029A009312
:103EBC00039B01F0AFFA6B7AFA223100E85C01F057
:103ECC0075FC024ACEE7C04621BD010811BD0108B0
:103EDC00F0B5012589B003900491049BAB424ED000
:103EEC00EBB218000593FFF7BBFD04000600031DA1
:103EFC000693039A0399527A3378885C98423AD1A4
:103F0C00FD2838D8A37A834235D0002701213B0005
:103F1C003A00009701F07EFA39000498FFF778FD1B
:103F2C00012107900498FFF773FD02210700049804
:103F3C00FFF76EFD0300039A0399527A885C012106
:103F4C00079A00933B0001F065FA0598FFF75CFFB8
:103F5C00FE23337023790C4A01332371D3680598FF
:103F6C000133D360FFF788FD0220642101F0CCFB04
:103F7C00022001F053FB069B01369E42B9D101355C
:103F8C00052DAAD109B0F0BD24010020F7B5009091
:103F9C00FFF766FD04260400009B013BDBB2019396
:103FAC00019B012B22D9009B033B012B24D8257BA1
:103FBC00237B62799B18AB421EDDEFB21E220321DC
:103FCC00380001F0F3FB032001F028FB782007F008
:103FDC00BFFFFA220321380001F0E8FB032001F0B7
:103FEC001DFB782007F0B4FF0135E1E7257B237B2F
:103FFC0062799B1AAB4203DB013E002ED0D1F7BD98
:10400C00EFB21E220321380001F0D0FB032001F097
:10401C0005FB782007F09CFFFA220321380001F001
:10402C00C5FB032001F0FAFA782007F091FF013D5F
:10403C00DDE7F7B50090FFF713FD0024050001261E
:10404C00009B013BDBB20193019B012B1AD82F7B08
:10405C002B7B033BBB4209DD032001F0DFFA01346B
:10406C00C82007F075FF142CEED1F7BD2200F8B272
:10407C003240344204D1032101F098FB013FE7E7C1
:10408C00FA22F8E7009B033B012BE5D82F7B2B7B17
:10409C000333BB42E0DB2200F8B23240344204D19D
:1040AC00032101F083FB0137F1E7FA22F8E770B541
:1040BC00437A0400C25CC37A0D0001339A4214D1D6
:1040CC00437901334371FFF7DFFD2800FFF75EFFF3
:1040DC006379042B02D12800FFF7ABFF0320642186
:1040EC0001F012FB032001F099FA70BD10B5034CDE
:1040FC00A078FFF7B5FC6378437210BD2401002053
:10410C0070B51A4DA878FFF7ABFC03210400002012
:10411C00FFF796FC0322235CFF2B1FD02A79062A7B
:10412C000BD1FE2B21D00321023A431C013A0B4048
:10413C00D2B2D8B2E35C002A15D12279042A14D069
:10414C00E97800220325FD2B0FD991420DD0431C99
:10415C002B400132D8B2D2B2E35CF4E7431C1340DB
:10416C00D8B2E35CD8E7FE2BDFD170BD2401002070
:10417C004379042B0CD1C37B002B09D10121054AB7
:10418C00C1730549137809684373013301611370D6
:10419C007047C0462001002050050020F7B5104E96
:1041AC000124F7787B1E01937379009300231D0083
:1041BC00A74204DA002B01D0009B7371F7BDE0B26B
:1041CC00FFF74EFCC37B002B01D00135EDB2019BF8
:1041DC009D4201DB0223009301230134E8E7C04632
:1041EC0024010020F0B589B004000591FFF738FCDC
:1041FC00437A0500039300230493059B062B00D000
:10420C00A5E0039BC35CFE2B00D0A0E0837A039A4D
:10421C0083540379664A013B037193682000013390
:10422C009360FFF729FC2000FFF7EEFD210028002A
:10423C00FFF74EFE00212000FFF7EAFB01210600EC
:10424C002000FFF7E5FB022107002000FFF7E0FB51
:10425C000300039A0121A85C320000933B0001F09B
:10426C00D9F80120642101F04FFA012001F0D6F9B0
:10427C006421022001F048FA6421012001F044FA83
:10428C006421032001F040FA022001F0C7F901205B
:10429C0001F0C4F9032001F0C1F909B0F0BD039B92
:1042AC00EF5C272F60D100262000EE543100FFF781
:1042BC00AFFB012106902000FFF7AAFB022107901B
:1042CC002000FFF7A5FB0121079B069A0090300008
:1042DC0001F0A0F83300320001213800009601F003
:1042EC0099F8FFF7A1FC6421012001F00DFA0120DF
:1042FC0001F094F900212000FFF78AFB0121060050
:10430C002000FFF785FB022107002000FFF780FB50
:10431C000300039A0121A85C320000933B0001F0DA
:10432C0079F821002800FFF7C2FE2800FFF720FFD4
:10433C00FFF734FF6421012001F0E6F9012001F0C0
:10434C006DF9C82007F004FE049B01330493059B10
:10435C00049A9342A3DC21002800FFF7B9FD144A0C
:10436C0013690133136183E7FD2FBAD8039B01371F
:10437C00FEB2EE5400212000FFF74AFB012106900B
:10438C002000FFF745FB022107002000FFF740FB50
:10439C003B000121069A0090300001F03BF800220E
:1043AC00039B0121E85C13000138009297E7C0469B
:1043BC002401002010B592B03822002104A816F078
:1043CC009DFD10220021684616F098FD802080008B
:1043DC0008F0D2F880235B000793002308930D9319
:1043EC0008330E9380239B020F93C023DB0410939E
:1043FC008023022440229B0504A8049409920B9468
:10440C000C94119308F0E4F8002801D072B6FEE782
:10441C00072302900390210068460093019408F052
:10442C003FFB002801D072B6FEE712B010BD10B5EC
:10443C00012000F03BFD022000F038FD032000F0CD
:10444C0035FD10BD002370B505000C4A0C4C1360F3
:10445C000C4A236113600C4AA36013600B4AE3609F
:10446C0013600B4A136001F0E5F92800E570FFF7C3
:10447C0099FB0123A370637170BDC04660050020D9
:10448C00240100205C050020580500205005002068
:10449C005405002010B5FFF7CAFF0222014B1A7019
:1044AC0010BDC0462401002070B5FFF71FFE204C44
:1044BC002378012B02D1A078FFF736FC2378042B4C
:1044CC0034D12179A078FFF78DFE002301252370CC
:1044DC00A078FFF7C5FA4379042B18D02379062B63
:1044EC0022D0A078E3780130C0B2834200D2012000
:1044FC000125A070FFF7B4FA4379042B14D1A078EE
:10450C00E3780130C0B28342F3D22800F1E7A078FF
:10451C00E3780130C0B2834200D22800A070FFF7CC
:10452C009FFA4379042BD3D00023637070BDC0462F
:10453C002401002070B50120FFF792FA0024FF251A
:10454C000472C5800220FFF78BFA0572C480032029
:10455C00FFF786FA01235B42C38004720420FFF745
:10456C007FFA024B0472C38070BDC04600FFFFFF90
:10457C00F0B5A1B007F0C6FCFFF71CFF1422002118
:10458C0013A816F0BBFC042201250227D24E0421ED
:10459C00736BD24813437363736B00241340019302
:1045AC00019B736B1C3213437363736B1340029345
:1045BC00029B736B00222B437363736B2B4003932F
:1045CC00039B736B3B437363736B3B400493049B80
:1045DC0007F0B8FFA02039000022C00507F0B2FF99
:1045EC0080212A00BE48C90107F0ACFFC021A020E1
:1045FC002A008900C00507F0A5FF8223B9489B015A
:10460C0013A913931494159507F0E4FE0422B348F0
:10461C0013A9139214951594169407F0DBFEC4237A
:10462C00A0209B0313A9C00514931395159407F0B0
:10463C00D1FEA02013A9C0051397169714951594B5
:10464C0007F0C8FEA84BA64813A91393149415950C
:10465C0007F0C0FE80237F19DB01A14813A9139337
:10466C0016971495159407F0B5FEC023A0209B0057
:10467C0013A9C005139316971495159407F0AAFE69
:10468C0022002100052007F081FC052007F0A8FC82
:10469C00B36B22002B43B363B36B21002B40092077
:1046AC000093009B07F072FC092007F099FC220094
:1046BC0021000A2007F06AFC0A2007F091FC220076
:1046CC0021000B2007F062FC0B2007F089FC8748C7
:1046DC00874BE026036080239B0083610237FA3B03
:1046EC00FF3BFF37F600C36247608460C66004611D
:1046FC004461C4610462446284620463446308F0EC
:10470C0081FB0300A04201D072B6FEE779487A4AD9
:10471C008380436183610260056207F087FC031E9E
:10472C0001D072B6FEE77548754A47600260802278
:10473C0092008261FA3AFF3A8360C660036143617A
:10474C00C361036243628362C2620363436308F022
:10475C0059FB051E01D072B6FEE701000C2213A80E
:10476C0016F0CCFB674C684B20002360674BA560B0
:10477C006360674BA561E36008F042FF002801D03D
:10478C0072B6FEE71026159013A92000139609F0B7
:10479C0095FA051E01D072B6FEE70100320008A89A
:1047AC0016F0ACFB0C22290005A816F0A7FB1C2266
:1047BC0029000CA816F0A2FB3422290013A816F02D
:1047CC009DFB544C544B200023604F236560A56027
:1047DC00E36025616561A56108F012FF002801D036
:1047EC0072B6FEE7802320005B0108A9089309F04C
:1047FC002DF8002801D072B6FEE7200008F02AFF41
:10480C00002801D072B6FEE705900690079005A926
:10481C00200009F053FA021E01D072B6FEE76023A5
:10482C000D900E900F901090119012900CA92000EA
:10483C000C9308F079FF002801D072B6FEE7042231
:10484C0020000CA908F070FF002801D072B6FEE71A
:10485C00082220000CA908F067FF002801D072B6CE
:10486C00FEE780239B0118938023139014901590DE
:10487C001690179019901A901B909B041D901E90E7
:10488C001F9013A920001C9309F052FA051E01D0A9
:10489C0072B6FEE7200000F0DDFC0C22290013A804
:1048AC0016F02CFB1D4C1E4B20002360FA231B0220
:1048BC006560A560E360A56108F0A2FE002801D048
:1048CC0072B6FEE71390159013A9200009F0F6F9C3
:1048DC00002827D072B6FEE70010024000140050EA
:1048EC00000400500008005013100000B004002019
:1048FC000030014014050020003002404C04002020
:10490C0000380040A002002000100040050C000000
:10491C00FFFF0000EC020020002C0140540200209C
:10492C000014004000F0D1FF200008F0A9FC052481
:10493C0000F080FFFFF7FEFD084A5379002B04D1ED
:10494C00FFF7A8FD00F0C7FFF6E7012B02D1FFF738
:10495C00ABFDF7E7022BF5D11470F3E7240100202F
:10496C0072B6FEE770B51B4B9878FFF779F81A4DC5
:10497C00437A2A78040093420AD0805C0121C82231
:10498C0000F014FF012000F049FE637A2B7070BD1B
:10499C00C05CFD28FBD81149114A0B6814681B1B1D
:1049AC00FA246400A342F2D30E4C0B6821781360F6
:1049BC00012908D1002200F0F9FE00230120237008
:1049CC0000F02CFEE3E7C822012100F0EFFE0123EA
:1049DC00F4E7C046240100201F00002050050020F1
:1049EC00600500201E000020F0B5664B87B05D7995
:1049FC00002D0ED00023012019001A0000F064FDD8
:104A0C000120002100F080FE012000F007FE07B01D
:104A1C00F0BD5D495D4A0B6810681B1A272BF6D94F
:104A2C0001240B685A4E13605A4B37681B680237C7
:104A3C00234200D08EE029002000FEF7E9FF210080
:104A4C0003902000FEF7E4FF022104902000FEF703
:104A5C00DFFF049B039A21000090380000F0DAFC81
:104A6C00290002203768FEF7D3FF210003900220B3
:104A7C00FEF7CEFF022104900800FEF7C9FF0C37A9
:104A8C00049B039A21000090380000F0C3FC29001D
:104A9C0003203768FEF7BCFF210003900320FEF7CC
:104AAC00B7FF022104900320FEF7B2FF1637039ADA
:104ABC002100049B0090380000F0ACFC364F29001C
:104ACC003B7804200393FEF7A3FF210004900420FD
:104ADC00FEF79EFF022105900420FEF799FF059B2F
:104AEC002100049A0090039800F094FC3068C822CE
:104AFC0002302100C0B200F059FE3068C8220C30E0
:104B0C002100C0B200F052FE3068C8221630C0B28C
:104B1C00210000F04BFEC8223878210000F046FE40
:104B2C00012000F07BFD1C4B3268197801320131F9
:104B3C00326019700A2A07D10022164932602032DD
:104B4C001A700A6801320A601A78282A00D01500F7
:104B5C001D705CE72A002100F8B200F027FE3068D7
:104B6C002A000C302100C0B200F020FE30682A0070
:104B7C001630C0B2210000F019FE074B2A0018783D
:104B8C00CBE7C04624010020500500204C05002036
:104B9C0044050020480500201D000020F0B5584BAE
:104BAC0089B05B79002B0ED00023022019001A006B
:104BBC0000F08AFC0220002100F0A6FD022000F08B
:104BCC002DFD09B0F0BD4F490A78032A00D91A000F
:104BDC000A704D4A1178032900D80B0013704B4909
:104BEC004B4A0B6810681B1A772BEAD90B681360B9
:104BFC00484B049300230393474F3B68002B15DB72
:104C0C000025039A454E9400E31898002A002B00C7
:104C1C0002218059009500F0FDFB3B682A00E41846
:104C2C00A400A0590221C0B200F0C0FD3C4F3B686B
:104C3C00002B15DB0025039A384E9400E3189800DE
:104C4C002A002B0002218059009500F0E3FB3B6801
:104C5C002A00E418A400A0590221C0B200F0A6FD5D
:104C6C00049B284F1B683878DBB20593049B2B4CB4
:104C7C005B680221DBB20693049B059A9B68DBB24E
:104C8C000793039B9E003018079B800000590093EC
:104C9C00069B00F0BFFB1C4D079B287802213018A7
:104CAC008000059A00590093069B00F0B3FB3B78FB
:104CBC00C822F3189B0018590221C0B200F076FDEF
:104CCC002B783222F618B60030590221C0B200F00F
:104CDC006DFD039B01330393049B0C330493039BE3
:104CEC00042B89D1022000F099FC3A780A4B0C492C
:104CFC001A602B7801320B6001333A702B7060E72D
:104D0C0024010020400500201C000020500500203C
:104D1C003C05002080BD010818000020B0BD010832
:104D2C0014000020F0B5584B89B05B79002B0ED0E5
:104D3C000023032019001A0000F0C6FB03200021F9
:104D4C0000F0E2FC032000F069FC09B0F0BD4F4913
:104D5C000A78032A00D91A000A704D4A11780329DF
:104D6C0000D80B0013704B494B4A0B6810681B1A88
:104D7C00772BEAD90B681360484B049300230393F9
:104D8C00474F3B68002B15DB0025039A454E9400DA
:104D9C00E31898002A002B0003218059009500F09D
:104DAC0039FB3B682A00E418A400A0590321C0B2C7
:104DBC0000F0FCFC3C4F3B68002B15DB0025039AF4
:104DCC00384E9400E31898002A002B0003218059D8
:104DDC00009500F01FFB3B682A00E418A400A059C2
:104DEC000321C0B200F0E2FC049B284F1B6838780A
:104DFC00DBB20593049B2B4C5B680321DBB206935F
:104E0C00049B059A9B68DBB20793039B9E003018AA
:104E1C00079B800000590093069B00F0FBFA1C4D89
:104E2C00079B2878032130188000059A00590093BD
:104E3C00069B00F0EFFA3B78C822F3189B00185938
:104E4C000321C0B200F0B2FC2B781E22F618B6007B
:104E5C0030590321C0B200F0A9FC039B013303932A
:104E6C00049B0C330493039B042B89D1032000F087
:104E7C00D5FB3A780A4B0C491A602B7801320B603F
:104E8C0001333A702B7060E72401002038050020B4
:104E9C0010000020500500205805002080BD01089E
:104EAC000C00002040BD01080800002010B50328AC
:104EBC0005D8FBF735F90205080BFFF753FD10BDBC
:104ECC00FFF792FDFBE7FFF769FEF8E7FFF72AFF14
:104EDC00F5E70000024A1368013313607047C046BF
:104EEC005005002007B501210A4BC0201A6CC000E8
:104EFC000A431A641A6C0A4080210092009ADA6BF9
:104F0C0049050A43DA63DB6B0B400193019B07F005
:104F1C0031F807BD00100240084B026882B09A427B
:104F2C0009D18021064B49019A6B0A439A639B6B0A
:104F3C000B400193019B02B07047C0460030024009
:104F4C000010024070B505008AB01422002105A89B
:104F5C0015F0D4FF2B685C4A93424CD180215B4BFB
:104F6C0049011A6CA0200A431A641A6C02240A40E4
:104F7C0001210092009A5A6BC0050A435A635B6B7D
:104F8C0006940B400193019BA02305A9059307945C
:104F9C00089407F01FFAA02000264023C00505A99D
:104FAC000593069407940896099607F013FA484C53
:104FBC00484B2000236011236360013BA3607033D6
:104FCC002361803363618023DB00E660A361E661CB
:104FDC00266207F0CFF8B04201D0FFF7C1FC0022E7
:104FEC00192011006C65A56206F0D0FF192006F09F
:104FFC00F7FF0AB070BD384A9342FAD18021334B87
:10500C00C901DA6B02240A43DA63DA6B33480A40CB
:10501C0004210292029A5A6B00260A435A635A6B75
:10502C000A400392039A5A6B05A922435A635B6B9D
:10503C00069423400493049B0C2305930B3B079489
:10504C000894099307F0C6F9802325489B0105A90C
:10505C000593069407940894099607F0BBF9214C24
:10506C00214B20002360122363606E33A660E66040
:10507C0023616661A661E661266207F07BF8B042A7
:10508C0001D0FFF76DFC194BAC65A562184C802262
:10509C00236013236360033BA36000232000E360C1
:1050AC0022616361A361E361236207F063F8002866
:1050BC0001D0FFF755FC00221A2011006C65A56287
:1050CC0006F064FF1A2092E7003001400010024005
:1050DC00F003002008000240003800400008005097
:1050EC0000040050940300201C00024030000240D9
:1050FC003803002030B5050091B03422002103A8FC
:10510C0015F0FCFE2B68494A934266D1802303A814
:10511C009B03039307F072FD002801D0FFF720FCDE
:10512C008021434B09011A6C424C0A431A641B6CD4
:10513C0080220B400093009B3F4B2261236016237F
:10514C00921863606261063B8022A3600023D20048
:10515C002000E360A261E361236207F00BF80028F2
:10516C0001D0FFF7FDFB354BEC62A562344C80227D
:10517C00236014232261921863606261043B8022D5
:10518C00A3600023D2002000E360A261E3612362EC
:10519C0006F0F0FF002801D0FFF7E2FB294B6C6210
:1051AC00A562294C8022236015232261921863602A
:1051BC006261053B8022A3600023D2002000E360E3
:1051CC00A261E361236206F0D5FF002801D0FFF74E
:1051DC00C7FBAC62A56211B030BD1C4A934211D121
:1051EC001021134B1120DA6B0A43DA630022DB6BBC
:1051FC000B4001931100019B06F0C8FE112006F034
:10520C00EFFEE8E7124A9342E5D12021084B122029
:10521C00DA6B0A43DA630022DB6B0B40029311005A
:10522C00029B06F0B3FE1220E9E7C046002C0140B9
:10523C0000100240F80100204400024058000240D7
:10524C009C0100206C000240400100200010004036
:10525C000014004010B5040088B01422002103A8EB
:10526C0015F04CFE164B22689A4227D10121154BA2
:10527C00A0205A6B02240A435A635A6BC0050A4099
:10528C000192019A5A6B03310A435A635B6B049483
:10529C000B400293029B802303A9DB00039307942A
:1052AC0007F098F8C0239B0003930023064803A93A
:1052BC00049405930693079407F08CF808B010BD7E
:1052CC00002C014000100240000800507047FEE71F
:1052DC007047704710B506F029FE10BD10B50120BF
:1052EC0007F036F910BD10B5FEF734FB10BD10B544
:1052FC00FEF7FCF810BD000010B5054807F016F8D5
:10530C00044807F013F8044807F010F810BDC04625
:10531C00F80100209C0100204001002010B502483B
:10532C0008F03CF810BDC046A002002010B50248A1
:10533C0008F034F810BDC0465402002010B50248E5
:10534C0007F0DAFD10BDC046B004002010B50248CD
:10535C0007F0D2FD10BDC0464C0400200120704760
:10536C0010B515F07DFE162303600120404210BDE0
:10537C0010B515F075FE16230360FEE770B50E0030
:10538C0014000025A54201DB200070BD00E000BF29
:10539C0070550135F6E770B50E0014000025A542D6
:1053AC0001DB200070BD705D00E000BF0135F6E749
:1053BC0001204042704780239B0100204B607047C6
:1053CC0001207047002070470B490C4A0300521A09
:1053DC000B4910B50868002801D10A480860086814
:1053EC00C318934206D915F03BFE0C230360012031
:1053FC00404210BD0B60FCE700080000009000204C
:10540C006405002048660020831E1020012B00D963
:10541C001830704730B503AC2578012907D1032427
:10542C0060431249425409184B708D7030BD0229EB
:10543C000DD1032460430D4908180D4941180A7019
:10544C000C4A821813700C4BC0180570EEE7032938
:10545C00ECD14143054C0948611808180270084A00
:10546C008A181370074BC9180D70DFE76805002008
:10547C00D4080000D5080000D6080000980C0000E5
:10548C00990C00009A0C000010B50C4B1A78012AEC
:10549C0007D100210A4808F00DFC0122094B1A70B3
:1054AC0010BD1A78022A02D104210548F3E71B78B3
:1054BC00032BF2D108210248EDE7C046C9190020A0
:1054CC00EC020020C8190020F0B585B005001F00C3
:1054DC0002910392FFF798FF00240600A64201DC1C
:1054EC0005B0F0BD20002900039B029A0097FFF73E
:1054FC0091FF0134F2E7000073B504000D001000B9
:10550C001B491600FAF7F8FD00280FD16B46332221
:10551C00DA71022D1CD0032D24D0012D21D16B4624
:10552C00DA79144B783464001A531AE030001249BB
:10553C00FAF7E2FD002802D16B461A22E8E73000A8
:10554C000E49FAF7D9FD00280BD16B46D871E0E76C
:10555C0093216B46C900DA796418064B64001B1959
:10556C009A8073BD6B460649DA796418014BDAE709
:10557C00F0BD010868050020F5BD0108F9BD010862
:10558C007C06000003000448022B03D00348032BC5
:10559C0000D003487047C0469C0E002060120020CB
:1055AC0058060020194B10B51870012813D1187823
:1055BC00C0B2FFF7E7FF00210200154B154C1B682A
:1055CC009BB2200008F0EEFA134B1A78002AFCD09C
:1055DC0000221A7010BD02280AD11878C0B2FFF749
:1055EC00D1FF0B4B02001B6804210A4C9BB2E8E76D
:1055FC000328E9D11878C0B2FFF7C4FF044B0200AE
:10560C001B680821034C9BB2DBE7C046C91900207C
:10561C00C4190020EC020020C8190020F0B50027A6
:10562C00314B85B01F600400FFF7EEFE2F4B304E60
:10563C001880304B304D00932C4B1B88BB4211DC37
:10564C003226294F21003D682C4AA8B2013E013573
:10565C00FFF752FF3D60002EF3D12000FFF7A2FFB1
:10566C0005B0F0BD012C27D1737832781B041202DF
:10567C001343B27813430193172302931A4B029AE4
:10568C001B6803936B46988901239340019A1A4235
:10569C0027D01B4A2100FFF72FFF039B124A01332F
:1056AC001360029B5A1E0292E8D2009B013703330F
:1056BC00033600930335BFE7022C09D1009B009AF7
:1056CC005B7812781B0412021343009A9278D1E78C
:1056DC00032CD1D16B782A781B0412021343AA78BD
:1056EC00C8E7084AD6E7C046C419002020000020AD
:1056FC00E00500206C0E002030120020F9BD0108DE
:10570C00F0BD0108F5BD0108F0B5224B8900CB585E
:10571C0085B005000193FFF777FE00261E4F03901E
:10572C00039BB34201DC05B0F0BD00233C000293A7
:10573C00012D13D12078FBF79FFD0199FBF79AFA05
:10574C00FBF77AFD230078331870029B0134013388
:10575C000293032BECD101360337E1E7022D0BD179
:10576C000E4BE05CFBF788FD0199FBF783FAFBF726
:10577C0063FD0B4BE054E8E7032DE6D1094BE05CED
:10578C00FBF77AFD0199FBF775FAFBF755FD064B14
:10579C00F0E7C046C415002068050020D4080000BE
:1057AC0004090000980C0000C80C0000F8B5032494
:1057BC000D000026194B44439200D758184BE4189F
:1057CC00012D0FD12078FBF757FD391CFBF752FA4E
:1057DC00FBF732FD23007833187001360134032EA9
:1057EC00EED1F8BD022D0BD10E4BE05CFBF744FD66
:1057FC00391CFBF73FFAFBF71FFD0B4BE054ECE7B2
:10580C00032DEAD1094BE05CFBF736FD391CFBF7A5
:10581C0031FAFBF711FD064BF0E7C046C41500202A
:10582C0068050020D408000004090000980C000052
:10583C00C80C000070B500242000FBF71DFD0B49BF
:10584C00FBF732F8FDF7C0FBA022094B120614F04F
:10585C00ABF9084BA500ED18FDF7FEFB80230134D6
:10586C0028605B009C42E7D170BDC04600007F43BE
:10587C0099990140C41500200D48854606F018FB87
:10588C000C480D490D4A002302E0D458C45004338F
:10589C00C4188C42F9D30A4A0A4C002301E0136065
:1058AC000432A242FBD315F0E1FBFEF761FEFEE7EA
:1058BC000090002000000020B000002064F80108D7
:1058CC00B000002048660020FEE710B500F0FAFAA0
:1058DC0000F07AFA10BD10B500F0F6FA10BD704762
:1058EC0000207047704710B50400042114F035F9FE
:1058FC00200010BD704710B500F064FB10BD10B552
:10590C0000F08EFB10BD10B500F066FB10BD10B59D
:10591C0000F072FB10BDF12110B50400C90014F0A9
:10592C001CF9200010BD704770477047704703008A
:10593C007833197001237930037070470020704759
:10594C0041644A1E9141014B19707047CF6200208F
:10595C0000207047836B10B5002B01D008009847CE
:10596C0010BD000000487047FFFF000010B54068F4
:10597C0003689B69984710BD70477047C1677047B3
:10598C00C06F70477047000010B50400FDF7CAFFE8
:10599C00FDF7ECFDFDF7B2FFFDF72EFF200000F048
:1059AC006FFB074B636100F01DF9064B1868036829
:1059BC001B6F9847FDF72AFE00F006F910BDC04694
:1059CC00CC190020D062002010B5040009F062FD53
:1059DC0023682000AC331B68984710BD10B500F04D
:1059EC002EFB10BD10B500F02CFB10BD10B500F057
:1059FC0071FB10BD002210B5024B1A8000F05CFB4D
:105A0C0010BDC046CE00002010B500F059FB034B72
:105A1C001B88002B01D000F0D1F810BDCE00002067
:105A2C0010B500F05DFB10BD10B500F007FB10BD0C
:105A3C0010B500F003FB10BD10B500F0FFFA10BD5F
:105A4C0010B500F0FBFA10BD10B508F053FF10BDF7
:105A5C0010B50400802114F080F8200010BD000067
:105A6C00010010B5783134300D4B0C7801781A7870
:105A7C008C420AD0002A07D10A490B4A088814889C
:105A8C00108001220C801A7010BD002AFCD0064A2E
:105A9C000449148808880C8010800022F3E7C04663
:105AAC00C8620020C6620020C462002010B50C0041
:105ABC001900002C05D1084B084A0948094914F073
:105ACC00A3FFC4630264541EA241074B1A700368FF
